{
  "abi": [
    {
      "type": "constructor",
      "inputs": [
        {
          "name": "name_",
          "type": "string",
          "internalType": "string"
        },
        {
          "name": "symbol_",
          "type": "string",
          "internalType": "string"
        }
      ],
      "stateMutability": "nonpayable"
    },
    {
      "type": "function",
      "name": "destroy",
      "inputs": [
        {
          "name": "tokenId",
          "type": "uint256",
          "internalType": "uint256"
        },
        {
          "name": "key",
          "type": "string",
          "internalType": "string"
        }
      ],
      "outputs": [],
      "stateMutability": "nonpayable"
    },
    {
      "type": "function",
      "name": "mint",
      "inputs": [
        {
          "name": "tokenId",
          "type": "uint256",
          "internalType": "uint256"
        },
        {
          "name": "keyHash",
          "type": "bytes32",
          "internalType": "bytes32"
        }
      ],
      "outputs": [],
      "stateMutability": "nonpayable"
    },
    {
      "type": "function",
      "name": "name",
      "inputs": [],
      "outputs": [
        {
          "name": "",
          "type": "string",
          "internalType": "string"
        }
      ],
      "stateMutability": "view"
    },
    {
      "type": "function",
      "name": "owner",
      "inputs": [],
      "outputs": [
        {
          "name": "",
          "type": "address",
          "internalType": "address"
        }
      ],
      "stateMutability": "view"
    },
    {
      "type": "function",
      "name": "ownerOf",
      "inputs": [
        {
          "name": "tokenId",
          "type": "uint256",
          "internalType": "uint256"
        }
      ],
      "outputs": [
        {
          "name": "",
          "type": "bytes32",
          "internalType": "bytes32"
        }
      ],
      "stateMutability": "view"
    },
    {
      "type": "function",
      "name": "pause",
      "inputs": [],
      "outputs": [],
      "stateMutability": "nonpayable"
    },
    {
      "type": "function",
      "name": "setBaseURI",
      "inputs": [
        {
          "name": "baseURI",
          "type": "string",
          "internalType": "string"
        }
      ],
      "outputs": [],
      "stateMutability": "nonpayable"
    },
    {
      "type": "function",
      "name": "symbol",
      "inputs": [],
      "outputs": [
        {
          "name": "",
          "type": "string",
          "internalType": "string"
        }
      ],
      "stateMutability": "view"
    },
    {
      "type": "function",
      "name": "tokenURI",
      "inputs": [
        {
          "name": "tokenId",
          "type": "uint256",
          "internalType": "uint256"
        }
      ],
      "outputs": [
        {
          "name": "",
          "type": "string",
          "internalType": "string"
        }
      ],
      "stateMutability": "view"
    },
    {
      "type": "function",
      "name": "transfer",
      "inputs": [
        {
          "name": "toHash",
          "type": "bytes32",
          "internalType": "bytes32"
        },
        {
          "name": "tokenId",
          "type": "uint256",
          "internalType": "uint256"
        },
        {
          "name": "key",
          "type": "string",
          "internalType": "string"
        }
      ],
      "outputs": [],
      "stateMutability": "nonpayable"
    },
    {
      "type": "function",
      "name": "transferOwnership",
      "inputs": [
        {
          "name": "newOwner",
          "type": "address",
          "internalType": "address"
        }
      ],
      "outputs": [],
      "stateMutability": "nonpayable"
    },
    {
      "type": "function",
      "name": "unpause",
      "inputs": [],
      "outputs": [],
      "stateMutability": "nonpayable"
    },
    {
      "type": "event",
      "name": "OwnershipTransferred",
      "inputs": [
        {
          "name": "previousOwner",
          "type": "address",
          "indexed": false,
          "internalType": "address"
        },
        {
          "name": "newOwner",
          "type": "address",
          "indexed": false,
          "internalType": "address"
        }
      ],
      "anonymous": false
    },
    {
      "type": "event",
      "name": "Paused",
      "inputs": [
        {
          "name": "account",
          "type": "address",
          "indexed": false,
          "internalType": "address"
        }
      ],
      "anonymous": false
    },
    {
      "type": "event",
      "name": "TokenDestroyed",
      "inputs": [
        {
          "name": "tokenId",
          "type": "uint256",
          "indexed": true,
          "internalType": "uint256"
        },
        {
          "name": "ownerHash",
          "type": "bytes32",
          "indexed": true,
          "internalType": "bytes32"
        }
      ],
      "anonymous": false
    },
    {
      "type": "event",
      "name": "Transfer",
      "inputs": [
        {
          "name": "fromHash",
          "type": "bytes32",
          "indexed": true,
          "internalType": "bytes32"
        },
        {
          "name": "toHash",
          "type": "bytes32",
          "indexed": true,
          "internalType": "bytes32"
        },
        {
          "name": "tokenId",
          "type": "uint256",
          "indexed": true,
          "internalType": "uint256"
        }
      ],
      "anonymous": false
    },
    {
      "type": "event",
      "name": "Unpaused",
      "inputs": [
        {
          "name": "account",
          "type": "address",
          "indexed": false,
          "internalType": "address"
        }
      ],
      "anonymous": false
    }
  ],
  "bytecode": {
    "object": "0x60a06040525f608090815260069062000019908262000125565b5034801562000026575f80fd5b506040516200149e3803806200149e833981016040819052620000499162000297565b600462000057838262000125565b50600562000066828262000125565b50505f8054610100600160a81b031916336101000217905550620002fd565b634e487b7160e01b5f52604160045260245ffd5b600181811c90821680620000ae57607f821691505b602082108103620000cd57634e487b7160e01b5f52602260045260245ffd5b50919050565b601f82111562000120575f81815260208120601f850160051c81016020861015620000fb5750805b601f850160051c820191505b818110156200011c5782815560010162000107565b5050505b505050565b81516001600160401b0381111562000141576200014162000085565b620001598162000152845462000099565b84620000d3565b602080601f8311600181146200018f575f8415620001775750858301515b5f19600386901b1c1916600185901b1785556200011c565b5f85815260208120601f198616915b82811015620001bf578886015182559484019460019091019084016200019e565b5085821015620001dd57878501515f19600388901b60f8161c191681555b5050505050600190811b01905550565b5f82601f830112620001fd575f80fd5b81516001600160401b03808211156200021a576200021a62000085565b604051601f8301601f19908116603f0116810190828211818310171562000245576200024562000085565b8160405283815260209250868385880101111562000261575f80fd5b5f91505b8382101562000284578582018301518183018401529082019062000265565b5f93810190920192909252949350505050565b5f8060408385031215620002a9575f80fd5b82516001600160401b0380821115620002c0575f80fd5b620002ce86838701620001ed565b93506020850151915080821115620002e4575f80fd5b50620002f385828601620001ed565b9150509250929050565b611193806200030b5f395ff3fe608060405234801561000f575f80fd5b50600436106100b1575f3560e01c806377d317d01161006e57806377d317d0146101375780638456cb591461014a5780638da5cb5b1461015257806395d89b411461017a578063c87b56dd14610182578063f2fde38b14610195575f80fd5b806306fdde03146100b557806317b8b59d146100d35780631801fbe5146100e85780633f4ba83a146100fb57806355f804b3146101035780636352211e14610116575b5f80fd5b6100bd6101a8565b6040516100ca9190610cf6565b60405180910390f35b6100e66100e1366004610dc5565b610238565b005b6100e66100f6366004610e11565b6103bd565b6100e661060c565b6100e6610111366004610e31565b6106c3565b610129610124366004610e6b565b610701565b6040519081526020016100ca565b6100e6610145366004610e82565b61075a565b6100e66109ff565b5f5461010090046001600160a01b03166040516001600160a01b0390911681526020016100ca565b6100bd610a8b565b6100bd610190366004610e6b565b610a9a565b6100e66101a3366004610ec6565b610b9f565b6060600480546101b790610ef3565b80601f01602080910402602001604051908101604052809291908181526020018280546101e390610ef3565b801561022e5780601f106102055761010080835404028352916020019161022e565b820191905f5260205f20905b81548152906001019060200180831161021157829003601f168201915b5050505050905090565b5f5461010090046001600160a01b0316331461026f5760405162461bcd60e51b815260040161026690610f2b565b60405180910390fd5b5f5460ff16156102915760405162461bcd60e51b815260040161026690610f62565b826102d75760405162461bcd60e51b8152602060048201526016602482015275092dcecc2d8d2c840e4cac6d2e0d2cadce840d0c2e6d60531b6044820152606401610266565b5f816040516020016102e99190610f8e565b60408051601f1981840301815291815281516020928301205f8681526002909352912054909150811461034f5760405162461bcd60e51b815260206004820152600e60248201526d139bdd08185d5d1a1bdc9a5e995960921b6044820152606401610266565b5f8381526003602052604090205460ff16156103ad5760405162461bcd60e51b815260206004820152601860248201527f546f6b656e20686173206265656e2064657374726f79656400000000000000006044820152606401610266565b6103b78484610c8d565b50505050565b5f5461010090046001600160a01b031633146103eb5760405162461bcd60e51b815260040161026690610f2b565b5f5460ff161561040d5760405162461bcd60e51b815260040161026690610f62565b815f0361044f5760405162461bcd60e51b815260206004820152601060248201526f125b9d985b1a59081d1bdad95b88125160821b6044820152606401610266565b8061048f5760405162461bcd60e51b815260206004820152601060248201526f092dcecc2d8d2c840d6caf240d0c2e6d60831b6044820152606401610266565b5f82815260026020526040902054156104e25760405162461bcd60e51b8152602060048201526015602482015274546f6b656e20616c7265616479206d696e7465642160581b6044820152606401610266565b5f8281526003602052604090205460ff16156105405760405162461bcd60e51b815260206004820152601e60248201527f546f6b656e207761732070726576696f75736c792064657374726f79656400006044820152606401610266565b600180546001600160601b031690610559908290610fa9565b6001600160601b0316116105a75760405162461bcd60e51b8152602060048201526015602482015274546f74616c20737570706c79206f766572666c6f7760581b6044820152606401610266565b5f82815260026020526040808220839055600180546001600160601b038082168301166bffffffffffffffffffffffff1990911617905551839183917fbc7a322f72742a0c810e1f76615f57ed3a5bbfcbd956d3d451b3158968faace9908290a45050565b5f5461010090046001600160a01b0316331461063a5760405162461bcd60e51b815260040161026690610f2b565b5f5460ff166106845760405162461bcd60e51b815260206004820152601660248201527510dbdb9d1c9858dd081a5cc81b9bdd081c185d5cd95960521b6044820152606401610266565b5f805460ff191690556040513381527f5db9ee0a495bf2e6ff9c91a7834c1ba4fdd244a5e8aa4e537bd38aeae4b073aa906020015b60405180910390a1565b5f5461010090046001600160a01b031633146106f15760405162461bcd60e51b815260040161026690610f2b565b60066106fd828261102a565b5050565b5f81815260026020526040812054806107545760405162461bcd60e51b8152602060048201526015602482015274546f6b656e20646f6573206e6f742065786973742160581b6044820152606401610266565b92915050565b5f5461010090046001600160a01b031633146107885760405162461bcd60e51b815260040161026690610f2b565b5f5460ff16156107aa5760405162461bcd60e51b815260040161026690610f62565b815f036107ec5760405162461bcd60e51b815260206004820152601060248201526f125b9d985b1a59081d1bdad95b88125160821b6044820152606401610266565b5f81511161082a5760405162461bcd60e51b815260206004820152600b60248201526a496e76616c6964206b657960a81b6044820152606401610266565b5f8160405160200161083c9190610f8e565b60408051601f1981840301815291815281516020928301205f868152600290935291205490915081146108b15760405162461bcd60e51b815260206004820152601e60248201527f496e636f7272656374206b6579206f7220756e617574686f72697a65642100006044820152606401610266565b5f8381526003602052604090205460ff161561090f5760405162461bcd60e51b815260206004820152601760248201527f546f6b656e20616c72656164792064657374726f7965640000000000000000006044820152606401610266565b6001546001600160601b03166109605760405162461bcd60e51b8152602060048201526016602482015275546f74616c20737570706c7920756e646572666c6f7760501b6044820152606401610266565b5f838152600360205260408082208054600160ff19909116811790915580546bffffffffffffffffffffffff1981166001600160601b039182165f190190911617905551829185917fa5c22335f168b718fdcc08b3849a0a68bdd936ac5af8e61aad32d285bdecfd729190a360405183905f9083907fbc7a322f72742a0c810e1f76615f57ed3a5bbfcbd956d3d451b3158968faace9908390a4505050565b5f5461010090046001600160a01b03163314610a2d5760405162461bcd60e51b815260040161026690610f2b565b5f5460ff1615610a4f5760405162461bcd60e51b815260040161026690610f62565b5f805460ff191660011790556040513381527f62e78cea01bee320cd4e420270b5ea74000d11b0c9f74754ebdbfc544b05a258906020016106b9565b6060600580546101b790610ef3565b5f81815260026020526040902054606090610aef5760405162461bcd60e51b8152602060048201526015602482015274546f6b656e20646f6573206e6f742065786973742160581b6044820152606401610266565b5f8281526003602052604090205460ff1615610b4d5760405162461bcd60e51b815260206004820152601960248201527f546f6b656e20686173206265656e2064657374726f79656421000000000000006044820152606401610266565b5f60068054610b5b90610ef3565b905011610b765760405180602001604052805f815250610754565b600682604051602001610b8a9291906110e6565b60405160208183030381529060405292915050565b5f5461010090046001600160a01b03163314610bcd5760405162461bcd60e51b815260040161026690610f2b565b6001600160a01b038116610c235760405162461bcd60e51b815260206004820152601d60248201527f4e6577206f776e657220697320746865207a65726f20616464726573730000006044820152606401610266565b5f80546001600160a01b03838116610100818102610100600160a81b031985161790945560408051949093049091168084526020840191909152917f8be0079c531659141344cd1fd0a4f28419497f9722a3daafe3b4186f6b6457e0910160405180910390a15050565b5f81815260026020526040808220805490859055905190918391859184917fbc7a322f72742a0c810e1f76615f57ed3a5bbfcbd956d3d451b3158968faace99190a4505050565b5f5b83811015610cee578181015183820152602001610cd6565b50505f910152565b602081525f8251806020840152610d14816040850160208701610cd4565b601f01601f19169190910160400192915050565b634e487b7160e01b5f52604160045260245ffd5b5f82601f830112610d4b575f80fd5b813567ffffffffffffffff80821115610d6657610d66610d28565b604051601f8301601f19908116603f01168101908282118183101715610d8e57610d8e610d28565b81604052838152866020858801011115610da6575f80fd5b836020870160208301375f602085830101528094505050505092915050565b5f805f60608486031215610dd7575f80fd5b8335925060208401359150604084013567ffffffffffffffff811115610dfb575f80fd5b610e0786828701610d3c565b9150509250925092565b5f8060408385031215610e22575f80fd5b50508035926020909101359150565b5f60208284031215610e41575f80fd5b813567ffffffffffffffff811115610e57575f80fd5b610e6384828501610d3c565b949350505050565b5f60208284031215610e7b575f80fd5b5035919050565b5f8060408385031215610e93575f80fd5b82359150602083013567ffffffffffffffff811115610eb0575f80fd5b610ebc85828601610d3c565b9150509250929050565b5f60208284031215610ed6575f80fd5b81356001600160a01b0381168114610eec575f80fd5b9392505050565b600181811c90821680610f0757607f821691505b602082108103610f2557634e487b7160e01b5f52602260045260245ffd5b50919050565b60208082526017908201527f43616c6c6572206973206e6f7420746865206f776e6572000000000000000000604082015260600190565b60208082526012908201527110dbdb9d1c9858dd081a5cc81c185d5cd95960721b604082015260600190565b5f8251610f9f818460208701610cd4565b9190910192915050565b6001600160601b03818116838216019080821115610fd557634e487b7160e01b5f52601160045260245ffd5b5092915050565b601f821115611025575f81815260208120601f850160051c810160208610156110025750805b601f850160051c820191505b818110156110215782815560010161100e565b5050505b505050565b815167ffffffffffffffff81111561104457611044610d28565b611058816110528454610ef3565b84610fdc565b602080601f83116001811461108b575f84156110745750858301515b5f19600386901b1c1916600185901b178555611021565b5f85815260208120601f198616915b828110156110b95788860151825594840194600190910190840161109a565b50858210156110d657878501515f19600388901b60f8161c191681555b5050505050600190811b01905550565b5f8084546110f381610ef3565b6001828116801561110b57600181146111205761114c565b60ff198416875282151583028701945061114c565b885f526020805f205f5b858110156111435781548a82015290840190820161112a565b50505082870194505b50505093815260200194935050505056fea264697066735822122074da3af37e0087f20db57fabf71caa918aabb6aa6be9693537e66989ef32133a64736f6c63430008140033",
    "linkReferences": {}
  },
  "methodIdentifiers": {
    "destroy(uint256,string)": "77d317d0",
    "mint(uint256,bytes32)": "1801fbe5",
    "name()": "06fdde03",
    "owner()": "8da5cb5b",
    "ownerOf(uint256)": "6352211e",
    "pause()": "8456cb59",
    "setBaseURI(string)": "55f804b3",
    "symbol()": "95d89b41",
    "tokenURI(uint256)": "c87b56dd",
    "transfer(bytes32,uint256,string)": "17b8b59d",
    "transferOwnership(address)": "f2fde38b",
    "unpause()": "3f4ba83a"
  },
  "id": 21
}