{
  "abi": [
    {
      "type": "function",
      "name": "deployDDCNFT",
      "inputs": [
        {
          "name": "name",
          "type": "string",
          "internalType": "string"
        },
        {
          "name": "symbol",
          "type": "string",
          "internalType": "string"
        }
      ],
      "outputs": [
        {
          "name": "",
          "type": "address",
          "internalType": "address"
        }
      ],
      "stateMutability": "nonpayable"
    },
    {
      "type": "function",
      "name": "getAllDeployedContracts",
      "inputs": [],
      "outputs": [
        {
          "name": "",
          "type": "address[]",
          "internalType": "address[]"
        }
      ],
      "stateMutability": "view"
    },
    {
      "type": "function",
      "name": "getDeployedContractAt",
      "inputs": [
        {
          "name": "index",
          "type": "uint256",
          "internalType": "uint256"
        }
      ],
      "outputs": [
        {
          "name": "",
          "type": "address",
          "internalType": "address"
        }
      ],
      "stateMutability": "view"
    },
    {
      "type": "function",
      "name": "getDeployedContractsCount",
      "inputs": [],
      "outputs": [
        {
          "name": "",
          "type": "uint256",
          "internalType": "uint256"
        }
      ],
      "stateMutability": "view"
    },
    {
      "type": "function",
      "name": "owner",
      "inputs": [],
      "outputs": [
        {
          "name": "",
          "type": "address",
          "internalType": "address"
        }
      ],
      "stateMutability": "view"
    },
    {
      "type": "function",
      "name": "transferOwnership",
      "inputs": [
        {
          "name": "newOwner",
          "type": "address",
          "internalType": "address"
        }
      ],
      "outputs": [],
      "stateMutability": "nonpayable"
    },
    {
      "type": "event",
      "name": "DDCNFTDeployed",
      "inputs": [
        {
          "name": "contractAddress",
          "type": "address",
          "indexed": false,
          "internalType": "address"
        },
        {
          "name": "name",
          "type": "string",
          "indexed": false,
          "internalType": "string"
        },
        {
          "name": "symbol",
          "type": "string",
          "indexed": false,
          "internalType": "string"
        }
      ],
      "anonymous": false
    },
    {
      "type": "event",
      "name": "OwnershipTransferred",
      "inputs": [
        {
          "name": "previousOwner",
          "type": "address",
          "indexed": true,
          "internalType": "address"
        },
        {
          "name": "newOwner",
          "type": "address",
          "indexed": true,
          "internalType": "address"
        }
      ],
      "anonymous": false
    }
  ],
  "bytecode": {
    "object": "0x608060405234801561000f575f80fd5b505f80546001600160a01b03191633179055611e9a8061002e5f395ff3fe608060405234801562000010575f80fd5b506004361062000068575f3560e01c80635fc7f334146200006c5780636c9364b214620000825780638da5cb5b146200009b5780638e0ac20414620000c0578063a734346314620000d7578063f2fde38b14620000ee575b5f80fd5b6001546040519081526020015b60405180910390f35b6200008c62000107565b6040516200007991906200049c565b5f546001600160a01b03165b6040516001600160a01b03909116815260200162000079565b620000a7620000d1366004620004ea565b62000169565b620000a7620000e8366004620005a7565b620001e8565b62000105620000ff3660046200060e565b62000392565b005b606060018054806020026020016040519081016040528092919081815260200182805480156200015f57602002820191905f5260205f20905b81546001600160a01b0316815260019091019060200180831162000140575b5050505050905090565b6001545f908210620001b85760405162461bcd60e51b8152602060048201526013602482015272496e646578206f7574206f6620626f756e647360681b60448201526064015b60405180910390fd5b60018281548110620001ce57620001ce6200063d565b5f918252602090912001546001600160a01b031692915050565b5f80546001600160a01b031633146200023e5760405162461bcd60e51b815260206004820152601760248201527621b0b63632b91034b9903737ba103a34329037bbb732b960491b6044820152606401620001af565b5f838342604051602001620002569392919062000675565b6040516020818303038152906040528051906020012090505f81858560405162000280906200048e565b6200028d929190620006da565b8190604051809103905ff5905080158015620002ab573d5f803e3d5ffd5b506001805480820182555f919091527fb10e2d527612073b26eecdfd717e6a320cf44b4afac2b0732d9fcbe2b7fa0cf60180546001600160a01b0319166001600160a01b038316179055905060405163f2fde38b60e01b81523360048201526001600160a01b0382169063f2fde38b906024015f604051808303815f87803b15801562000336575f80fd5b505af115801562000349573d5f803e3d5ffd5b505050507f2df7614f942722ef46bb7f9c4c044e1617932686a65db085dbc6baa995f8461381868660405162000382939291906200070b565b60405180910390a1949350505050565b5f546001600160a01b03163314620003e75760405162461bcd60e51b815260206004820152601760248201527621b0b63632b91034b9903737ba103a34329037bbb732b960491b6044820152606401620001af565b6001600160a01b0381166200043f5760405162461bcd60e51b815260206004820152601d60248201527f4e6577206f776e657220697320746865207a65726f20616464726573730000006044820152606401620001af565b5f80546001600160a01b038381166001600160a01b0319831681178455604051919092169283917f8be0079c531659141344cd1fd0a4f28419497f9722a3daafe3b4186f6b6457e09190a35050565b611716806200074f83390190565b602080825282518282018190525f9190848201906040850190845b81811015620004de5783516001600160a01b031683529284019291840191600101620004b7565b50909695505050505050565b5f60208284031215620004fb575f80fd5b5035919050565b634e487b7160e01b5f52604160045260245ffd5b5f82601f83011262000526575f80fd5b813567ffffffffffffffff8082111562000544576200054462000502565b604051601f8301601f19908116603f011681019082821181831017156200056f576200056f62000502565b8160405283815286602085880101111562000588575f80fd5b836020870160208301375f602085830101528094505050505092915050565b5f8060408385031215620005b9575f80fd5b823567ffffffffffffffff80821115620005d1575f80fd5b620005df8683870162000516565b93506020850135915080821115620005f5575f80fd5b50620006048582860162000516565b9150509250929050565b5f602082840312156200061f575f80fd5b81356001600160a01b038116811462000636575f80fd5b9392505050565b634e487b7160e01b5f52603260045260245ffd5b5f5b838110156200066d57818101518382015260200162000653565b50505f910152565b5f84516200068881846020890162000651565b8451908301906200069e81836020890162000651565b01928352505060200192915050565b5f8151808452620006c681602086016020860162000651565b601f01601f19169290920160200192915050565b604081525f620006ee6040830185620006ad565b8281036020840152620007028185620006ad565b95945050505050565b6001600160a01b03841681526060602082018190525f906200073090830185620006ad565b8281036040840152620007448185620006ad565b969550505050505056fe60a06040525f608090815260069062000019908262000125565b5034801562000026575f80fd5b506040516200171638038062001716833981016040819052620000499162000297565b600462000057838262000125565b50600562000066828262000125565b50505f8054610100600160a81b031916336101000217905550620002fd565b634e487b7160e01b5f52604160045260245ffd5b600181811c90821680620000ae57607f821691505b602082108103620000cd57634e487b7160e01b5f52602260045260245ffd5b50919050565b601f82111562000120575f81815260208120601f850160051c81016020861015620000fb5750805b601f850160051c820191505b818110156200011c5782815560010162000107565b5050505b505050565b81516001600160401b0381111562000141576200014162000085565b620001598162000152845462000099565b84620000d3565b602080601f8311600181146200018f575f8415620001775750858301515b5f19600386901b1c1916600185901b1785556200011c565b5f85815260208120601f198616915b82811015620001bf578886015182559484019460019091019084016200019e565b5085821015620001dd57878501515f19600388901b60f8161c191681555b5050505050600190811b01905550565b5f82601f830112620001fd575f80fd5b81516001600160401b03808211156200021a576200021a62000085565b604051601f8301601f19908116603f0116810190828211818310171562000245576200024562000085565b8160405283815260209250868385880101111562000261575f80fd5b5f91505b8382101562000284578582018301518183018401529082019062000265565b5f93810190920192909252949350505050565b5f8060408385031215620002a9575f80fd5b82516001600160401b0380821115620002c0575f80fd5b620002ce86838701620001ed565b93506020850151915080821115620002e4575f80fd5b50620002f385828601620001ed565b9150509250929050565b61140b806200030b5f395ff3fe608060405234801561000f575f80fd5b50600436106100e5575f3560e01c80636352211e116100885780638da5cb5b116100635780638da5cb5b146101ac57806395d89b41146101d4578063c87b56dd146101dc578063f2fde38b146101ef575f80fd5b80636352211e1461017057806377d317d0146101915780638456cb59146101a4575f80fd5b806317b8b59d116100c357806317b8b59d1461012f5780631801fbe5146101425780633f4ba83a1461015557806355f804b31461015d575f80fd5b806301390f5c146100e957806306fdde03146100fe578063162094c41461011c575b5f80fd5b6100fc6100f7366004610f1e565b610202565b005b61010661027c565b6040516101139190610f57565b60405180910390f35b6100fc61012a366004611026565b61030c565b6100fc61013d36600461106a565b6103da565b6100fc6101503660046110b6565b610556565b6100fc6107a5565b6100fc61016b3660046110d6565b61085c565b61018361017e366004610f1e565b61089a565b604051908152602001610113565b6100fc61019f366004611026565b6108cb565b6100fc610b83565b5f5461010090046001600160a01b03166040516001600160a01b039091168152602001610113565b610106610c0f565b6101066101ea366004610f1e565b610c1e565b6100fc6101fd366004611110565b610d9f565b5f5461010090046001600160a01b031633146102395760405162461bcd60e51b81526004016102309061113d565b60405180910390fd5b5f818152600260205260409020546102635760405162461bcd60e51b815260040161023090611174565b5f81815260076020526040812061027991610ed4565b50565b60606004805461028b906111a3565b80601f01602080910402602001604051908101604052809291908181526020018280546102b7906111a3565b80156103025780601f106102d957610100808354040283529160200191610302565b820191905f5260205f20905b8154815290600101906020018083116102e557829003601f168201915b5050505050905090565b5f5461010090046001600160a01b0316331461033a5760405162461bcd60e51b81526004016102309061113d565b5f828152600260205260409020546103645760405162461bcd60e51b815260040161023090611174565b5f8281526003602052604090205460ff16156103be5760405162461bcd60e51b8152602060048201526019602482015278546f6b656e20686173206265656e2064657374726f7965642160381b6044820152606401610230565b5f8281526007602052604090206103d58282611228565b505050565b5f5461010090046001600160a01b031633146104085760405162461bcd60e51b81526004016102309061113d565b5f5460ff161561042a5760405162461bcd60e51b8152600401610230906112e4565b826104705760405162461bcd60e51b8152602060048201526016602482015275092dcecc2d8d2c840e4cac6d2e0d2cadce840d0c2e6d60531b6044820152606401610230565b5f816040516020016104829190611310565b60408051601f1981840301815291815281516020928301205f868152600290935291205490915081146104e85760405162461bcd60e51b815260206004820152600e60248201526d139bdd08185d5d1a1bdc9a5e995960921b6044820152606401610230565b5f8381526003602052604090205460ff16156105465760405162461bcd60e51b815260206004820152601860248201527f546f6b656e20686173206265656e2064657374726f79656400000000000000006044820152606401610230565b6105508484610e8d565b50505050565b5f5461010090046001600160a01b031633146105845760405162461bcd60e51b81526004016102309061113d565b5f5460ff16156105a65760405162461bcd60e51b8152600401610230906112e4565b815f036105e85760405162461bcd60e51b815260206004820152601060248201526f125b9d985b1a59081d1bdad95b88125160821b6044820152606401610230565b806106285760405162461bcd60e51b815260206004820152601060248201526f092dcecc2d8d2c840d6caf240d0c2e6d60831b6044820152606401610230565b5f828152600260205260409020541561067b5760405162461bcd60e51b8152602060048201526015602482015274546f6b656e20616c7265616479206d696e7465642160581b6044820152606401610230565b5f8281526003602052604090205460ff16156106d95760405162461bcd60e51b815260206004820152601e60248201527f546f6b656e207761732070726576696f75736c792064657374726f79656400006044820152606401610230565b600180546001600160601b0316906106f290829061132b565b6001600160601b0316116107405760405162461bcd60e51b8152602060048201526015602482015274546f74616c20737570706c79206f766572666c6f7760581b6044820152606401610230565b5f82815260026020526040808220839055600180546001600160601b038082168301166bffffffffffffffffffffffff1990911617905551839183917fbc7a322f72742a0c810e1f76615f57ed3a5bbfcbd956d3d451b3158968faace9908290a45050565b5f5461010090046001600160a01b031633146107d35760405162461bcd60e51b81526004016102309061113d565b5f5460ff1661081d5760405162461bcd60e51b815260206004820152601660248201527510dbdb9d1c9858dd081a5cc81b9bdd081c185d5cd95960521b6044820152606401610230565b5f805460ff191690556040513381527f5db9ee0a495bf2e6ff9c91a7834c1ba4fdd244a5e8aa4e537bd38aeae4b073aa906020015b60405180910390a1565b5f5461010090046001600160a01b0316331461088a5760405162461bcd60e51b81526004016102309061113d565b60066108968282611228565b5050565b5f81815260026020526040812054806108c55760405162461bcd60e51b815260040161023090611174565b92915050565b5f5461010090046001600160a01b031633146108f95760405162461bcd60e51b81526004016102309061113d565b5f5460ff161561091b5760405162461bcd60e51b8152600401610230906112e4565b815f0361095d5760405162461bcd60e51b815260206004820152601060248201526f125b9d985b1a59081d1bdad95b88125160821b6044820152606401610230565b5f81511161099b5760405162461bcd60e51b815260206004820152600b60248201526a496e76616c6964206b657960a81b6044820152606401610230565b5f816040516020016109ad9190611310565b60408051601f1981840301815291815281516020928301205f86815260029093529120549091508114610a225760405162461bcd60e51b815260206004820152601e60248201527f496e636f7272656374206b6579206f7220756e617574686f72697a65642100006044820152606401610230565b5f8381526003602052604090205460ff1615610a805760405162461bcd60e51b815260206004820152601760248201527f546f6b656e20616c72656164792064657374726f7965640000000000000000006044820152606401610230565b6001546001600160601b0316610ad15760405162461bcd60e51b8152602060048201526016602482015275546f74616c20737570706c7920756e646572666c6f7760501b6044820152606401610230565b5f838152600360209081526040808320805460ff1916600117905560079091528120610afc91610ed4565b600180546bffffffffffffffffffffffff1981166001600160601b039182165f1901909116179055604051819084907fa5c22335f168b718fdcc08b3849a0a68bdd936ac5af8e61aad32d285bdecfd72905f90a360405183905f9083907fbc7a322f72742a0c810e1f76615f57ed3a5bbfcbd956d3d451b3158968faace9908390a4505050565b5f5461010090046001600160a01b03163314610bb15760405162461bcd60e51b81526004016102309061113d565b5f5460ff1615610bd35760405162461bcd60e51b8152600401610230906112e4565b5f805460ff191660011790556040513381527f62e78cea01bee320cd4e420270b5ea74000d11b0c9f74754ebdbfc544b05a25890602001610852565b60606005805461028b906111a3565b5f81815260026020526040902054606090610c4b5760405162461bcd60e51b815260040161023090611174565b5f8281526003602052604090205460ff1615610ca55760405162461bcd60e51b8152602060048201526019602482015278546f6b656e20686173206265656e2064657374726f7965642160381b6044820152606401610230565b5f8281526007602052604081208054610cbd906111a3565b80601f0160208091040260200160405190810160405280929190818152602001828054610ce9906111a3565b8015610d345780601f10610d0b57610100808354040283529160200191610d34565b820191905f5260205f20905b815481529060010190602001808311610d1757829003601f168201915b505050505090505f81511115610d4a5792915050565b60068054610d57906111a3565b90505f03610d7457505060408051602081019091525f8152919050565b600683604051602001610d8892919061135e565b604051602081830303815290604052915050919050565b5f5461010090046001600160a01b03163314610dcd5760405162461bcd60e51b81526004016102309061113d565b6001600160a01b038116610e235760405162461bcd60e51b815260206004820152601d60248201527f4e6577206f776e657220697320746865207a65726f20616464726573730000006044820152606401610230565b5f80546001600160a01b03838116610100818102610100600160a81b031985161790945560408051949093049091168084526020840191909152917f8be0079c531659141344cd1fd0a4f28419497f9722a3daafe3b4186f6b6457e0910160405180910390a15050565b5f81815260026020526040808220805490859055905190918391859184917fbc7a322f72742a0c810e1f76615f57ed3a5bbfcbd956d3d451b3158968faace99190a4505050565b508054610ee0906111a3565b5f825580601f10610eef575050565b601f0160209004905f5260205f209081019061027991905b80821115610f1a575f8155600101610f07565b5090565b5f60208284031215610f2e575f80fd5b5035919050565b5f5b83811015610f4f578181015183820152602001610f37565b50505f910152565b602081525f8251806020840152610f75816040850160208701610f35565b601f01601f19169190910160400192915050565b634e487b7160e01b5f52604160045260245ffd5b5f82601f830112610fac575f80fd5b813567ffffffffffffffff80821115610fc757610fc7610f89565b604051601f8301601f19908116603f01168101908282118183101715610fef57610fef610f89565b81604052838152866020858801011115611007575f80fd5b836020870160208301375f602085830101528094505050505092915050565b5f8060408385031215611037575f80fd5b82359150602083013567ffffffffffffffff811115611054575f80fd5b61106085828601610f9d565b9150509250929050565b5f805f6060848603121561107c575f80fd5b8335925060208401359150604084013567ffffffffffffffff8111156110a0575f80fd5b6110ac86828701610f9d565b9150509250925092565b5f80604083850312156110c7575f80fd5b50508035926020909101359150565b5f602082840312156110e6575f80fd5b813567ffffffffffffffff8111156110fc575f80fd5b61110884828501610f9d565b949350505050565b5f60208284031215611120575f80fd5b81356001600160a01b0381168114611136575f80fd5b9392505050565b60208082526017908201527f43616c6c6572206973206e6f7420746865206f776e6572000000000000000000604082015260600190565b602080825260159082015274546f6b656e20646f6573206e6f742065786973742160581b604082015260600190565b600181811c908216806111b757607f821691505b6020821081036111d557634e487b7160e01b5f52602260045260245ffd5b50919050565b601f8211156103d5575f81815260208120601f850160051c810160208610156112015750805b601f850160051c820191505b818110156112205782815560010161120d565b505050505050565b815167ffffffffffffffff81111561124257611242610f89565b6112568161125084546111a3565b846111db565b602080601f831160018114611289575f84156112725750858301515b5f19600386901b1c1916600185901b178555611220565b5f85815260208120601f198616915b828110156112b757888601518255948401946001909101908401611298565b50858210156112d457878501515f19600388901b60f8161c191681555b5050505050600190811b01905550565b60208082526012908201527110dbdb9d1c9858dd081a5cc81c185d5cd95960721b604082015260600190565b5f8251611321818460208701610f35565b9190910192915050565b6001600160601b0381811683821601908082111561135757634e487b7160e01b5f52601160045260245ffd5b5092915050565b5f80845461136b816111a3565b600182811680156113835760018114611398576113c4565b60ff19841687528215158302870194506113c4565b885f526020805f205f5b858110156113bb5781548a8201529084019082016113a2565b50505082870194505b50505093815260200194935050505056fea26469706673582212208426b4821661e5b29a8d7b77e0a69a2b05dbf5270fea7f036ce9cf0e109d65ff64736f6c63430008140033a2646970667358221220a908df7552f180d028384fa3ccf43c2a580fedb30102a67b17fbc6c26d72714064736f6c63430008140033",
    "linkReferences": {}
  },
  "methodIdentifiers": {
    "deployDDCNFT(string,string)": "a7343463",
    "getAllDeployedContracts()": "6c9364b2",
    "getDeployedContractAt(uint256)": "8e0ac204",
    "getDeployedContractsCount()": "5fc7f334",
    "owner()": "8da5cb5b",
    "transferOwnership(address)": "f2fde38b"
  },
  "id": 22
}