{
  "abi": [
    {
      "type": "constructor",
      "inputs": [
        {
          "name": "name_",
          "type": "string",
          "internalType": "string"
        },
        {
          "name": "symbol_",
          "type": "string",
          "internalType": "string"
        }
      ],
      "stateMutability": "nonpayable"
    },
    {
      "type": "function",
      "name": "createSnapshot",
      "inputs": [],
      "outputs": [
        {
          "name": "",
          "type": "uint256",
          "internalType": "uint256"
        }
      ],
      "stateMutability": "nonpayable"
    },
    {
      "type": "function",
      "name": "destroy",
      "inputs": [
        {
          "name": "tokenId",
          "type": "uint256",
          "internalType": "uint256"
        },
        {
          "name": "addressHash",
          "type": "bytes32",
          "internalType": "bytes32"
        }
      ],
      "outputs": [],
      "stateMutability": "nonpayable"
    },
    {
      "type": "function",
      "name": "getLatestSnapshotId",
      "inputs": [],
      "outputs": [
        {
          "name": "",
          "type": "uint256",
          "internalType": "uint256"
        }
      ],
      "stateMutability": "view"
    },
    {
      "type": "function",
      "name": "getMemberSnapshot",
      "inputs": [
        {
          "name": "snapshotId",
          "type": "uint256",
          "internalType": "uint256"
        }
      ],
      "outputs": [
        {
          "name": "",
          "type": "bytes32[]",
          "internalType": "bytes32[]"
        }
      ],
      "stateMutability": "view"
    },
    {
      "type": "function",
      "name": "getOwner",
      "inputs": [],
      "outputs": [
        {
          "name": "",
          "type": "address",
          "internalType": "address"
        }
      ],
      "stateMutability": "view"
    },
    {
      "type": "function",
      "name": "isMemberInSnapshot",
      "inputs": [
        {
          "name": "snapshotId",
          "type": "uint256",
          "internalType": "uint256"
        },
        {
          "name": "addressHash",
          "type": "bytes32",
          "internalType": "bytes32"
        }
      ],
      "outputs": [
        {
          "name": "",
          "type": "bool",
          "internalType": "bool"
        }
      ],
      "stateMutability": "view"
    },
    {
      "type": "function",
      "name": "mint",
      "inputs": [
        {
          "name": "tokenId",
          "type": "uint256",
          "internalType": "uint256"
        },
        {
          "name": "addressHash",
          "type": "bytes32",
          "internalType": "bytes32"
        }
      ],
      "outputs": [],
      "stateMutability": "nonpayable"
    },
    {
      "type": "function",
      "name": "name",
      "inputs": [],
      "outputs": [
        {
          "name": "",
          "type": "string",
          "internalType": "string"
        }
      ],
      "stateMutability": "view"
    },
    {
      "type": "function",
      "name": "ownerOf",
      "inputs": [
        {
          "name": "tokenId",
          "type": "uint256",
          "internalType": "uint256"
        }
      ],
      "outputs": [
        {
          "name": "",
          "type": "bytes32",
          "internalType": "bytes32"
        }
      ],
      "stateMutability": "view"
    },
    {
      "type": "function",
      "name": "setBaseURI",
      "inputs": [
        {
          "name": "baseURI_",
          "type": "string",
          "internalType": "string"
        }
      ],
      "outputs": [],
      "stateMutability": "nonpayable"
    },
    {
      "type": "function",
      "name": "symbol",
      "inputs": [],
      "outputs": [
        {
          "name": "",
          "type": "string",
          "internalType": "string"
        }
      ],
      "stateMutability": "view"
    },
    {
      "type": "function",
      "name": "tokenURI",
      "inputs": [
        {
          "name": "tokenId",
          "type": "uint256",
          "internalType": "uint256"
        }
      ],
      "outputs": [
        {
          "name": "",
          "type": "string",
          "internalType": "string"
        }
      ],
      "stateMutability": "view"
    },
    {
      "type": "function",
      "name": "totalSupply",
      "inputs": [],
      "outputs": [
        {
          "name": "",
          "type": "uint256",
          "internalType": "uint256"
        }
      ],
      "stateMutability": "view"
    },
    {
      "type": "function",
      "name": "transferOwnership",
      "inputs": [
        {
          "name": "newOwner",
          "type": "address",
          "internalType": "address"
        }
      ],
      "outputs": [],
      "stateMutability": "nonpayable"
    },
    {
      "type": "event",
      "name": "OwnershipTransferred",
      "inputs": [
        {
          "name": "previousOwner",
          "type": "address",
          "indexed": true,
          "internalType": "address"
        },
        {
          "name": "newOwner",
          "type": "address",
          "indexed": true,
          "internalType": "address"
        }
      ],
      "anonymous": false
    },
    {
      "type": "event",
      "name": "SnapshotCreated",
      "inputs": [
        {
          "name": "snapshotId",
          "type": "uint256",
          "indexed": true,
          "internalType": "uint256"
        }
      ],
      "anonymous": false
    },
    {
      "type": "event",
      "name": "Transfer",
      "inputs": [
        {
          "name": "from",
          "type": "bytes32",
          "indexed": true,
          "internalType": "bytes32"
        },
        {
          "name": "to",
          "type": "bytes32",
          "indexed": true,
          "internalType": "bytes32"
        },
        {
          "name": "tokenId",
          "type": "uint256",
          "indexed": true,
          "internalType": "uint256"
        }
      ],
      "anonymous": false
    }
  ],
  "bytecode": {
    "object": "0x608060405234801562000010575f80fd5b506040516200144d3803806200144d833981016040819052620000339162000209565b5f825111620000895760405162461bcd60e51b815260206004820181905260248201527f4d656d626572736869703a206e616d652063616e6e6f7420626520656d70747960448201526064015b60405180910390fd5b5f815111620000e65760405162461bcd60e51b815260206004820152602260248201527f4d656d626572736869703a2073796d626f6c2063616e6e6f7420626520656d70604482015261747960f01b606482015260840162000080565b6004620000f48382620002fb565b506005620001038282620002fb565b50600380546001600160a01b031916339081179091556040515f907f8be0079c531659141344cd1fd0a4f28419497f9722a3daafe3b4186f6b6457e0908290a35050620003c3565b634e487b7160e01b5f52604160045260245ffd5b5f82601f8301126200016f575f80fd5b81516001600160401b03808211156200018c576200018c6200014b565b604051601f8301601f19908116603f01168101908282118183101715620001b757620001b76200014b565b81604052838152602092508683858801011115620001d3575f80fd5b5f91505b83821015620001f65785820183015181830184015290820190620001d7565b5f93810190920192909252949350505050565b5f80604083850312156200021b575f80fd5b82516001600160401b038082111562000232575f80fd5b62000240868387016200015f565b9350602085015191508082111562000256575f80fd5b5062000265858286016200015f565b9150509250929050565b600181811c908216806200028457607f821691505b602082108103620002a357634e487b7160e01b5f52602260045260245ffd5b50919050565b601f821115620002f6575f81815260208120601f850160051c81016020861015620002d15750805b601f850160051c820191505b81811015620002f257828155600101620002dd565b5050505b505050565b81516001600160401b038111156200031757620003176200014b565b6200032f816200032884546200026f565b84620002a9565b602080601f83116001811462000365575f84156200034d5750858301515b5f19600386901b1c1916600185901b178555620002f2565b5f85815260208120601f198616915b82811015620003955788860151825594840194600190910190840162000374565b5085821015620003b357878501515f19600388901b60f8161c191681555b5050505050600190811b01905550565b61107c80620003d15f395ff3fe608060405234801561000f575f80fd5b50600436106100e5575f3560e01c8063821206521161008857806395d89b411161006357806395d89b41146101b6578063c79597b5146101be578063c87b56dd146101e1578063f2fde38b146101f4575f80fd5b80638212065214610180578063893d20e8146101935780638a5d4869146101ae575f80fd5b806318160ddd116100c357806318160ddd146101325780633ec054e51461013a57806355f804b31461015a5780636352211e1461016d575f80fd5b806306fdde03146100e95780631504d8f0146101075780631801fbe51461011d575b5f80fd5b6100f1610207565b6040516100fe9190610bea565b60405180910390f35b61010f610297565b6040519081526020016100fe565b61013061012b366004610c35565b6103bf565b005b60025461010f565b61014d610148366004610c55565b61058e565b6040516100fe9190610c6c565b610130610168366004610cc3565b610641565b61010f61017b366004610c55565b61067b565b61013061018e366004610c35565b6106dc565b6003546040516001600160a01b0390911681526020016100fe565b61010f61094a565b6100f16109ba565b6101d16101cc366004610c35565b6109c9565b60405190151581526020016100fe565b6100f16101ef366004610c55565b610a58565b610130610202366004610d6e565b610b07565b60606004805461021690610d9b565b80601f016020809104026020016040519081016040528092919081815260200182805461024290610d9b565b801561028d5780601f106102645761010080835404028352916020019161028d565b820191905f5260205f20905b81548152906001019060200180831161027057829003601f168201915b5050505050905090565b6003545f906001600160a01b031633146102cc5760405162461bcd60e51b81526004016102c390610dd3565b60405180910390fd5b6008545f5b600154811015610364575f600182815481106102ef576102ef610e16565b5f91825260208083209091015480835290829052604090912054909150801561034f575f848152600760208181526040808420858552808352908420805460ff191660019081179091559282528201805492830181558352909120018190555b5050808061035c90610e3e565b9150506102d1565b50600280545f8381526007602052604080822090930191909155905182917fb3f0c2b18fd39e8cee5f554c26a84565b651237746f9b33337e40d5abab7340091a260088054905f6103b483610e3e565b909155509091505090565b6003546001600160a01b031633146103e95760405162461bcd60e51b81526004016102c390610dd3565b806104065760405162461bcd60e51b81526004016102c390610e56565b815f036104555760405162461bcd60e51b815260206004820152601c60248201527f4d656d626572736869703a20696e76616c696420746f6b656e2069640000000060448201526064016102c3565b5f82815260208190526040902054156104b05760405162461bcd60e51b815260206004820181905260248201527f4d656d626572736869703a20746f6b656e20616c72656164792065786973747360448201526064016102c3565b6002546104be816001610e8b565b116105155760405162461bcd60e51b815260206004820152602160248201527f4d656d626572736869703a20746f74616c20737570706c79206f766572666c6f6044820152607760f81b60648201526084016102c3565b5f828152602081905260408082208390556001805480820182558184527fb10e2d527612073b26eecdfd717e6a320cf44b4afac2b0732d9fcbe2b7fa0cf60185905560028054909101905551839183917fbc7a322f72742a0c810e1f76615f57ed3a5bbfcbd956d3d451b3158968faace9908290a45050565b606060085482106105e15760405162461bcd60e51b815260206004820152601f60248201527f4d656d626572736869703a20696e76616c696420736e617073686f742069640060448201526064016102c3565b5f828152600760209081526040918290206001018054835181840281018401909452808452909183018282801561063557602002820191905f5260205f20905b815481526020019060010190808311610621575b50505050509050919050565b6003546001600160a01b0316331461066b5760405162461bcd60e51b81526004016102c390610dd3565b60066106778282610eec565b5050565b5f81815260208190526040812054806106d65760405162461bcd60e51b815260206004820181905260248201527f4d656d626572736869703a20746f6b656e20646f6573206e6f7420657869737460448201526064016102c3565b92915050565b6003546001600160a01b031633146107065760405162461bcd60e51b81526004016102c390610dd3565b806107235760405162461bcd60e51b81526004016102c390610e56565b815f036107725760405162461bcd60e51b815260206004820152601c60248201527f4d656d626572736869703a20696e76616c696420746f6b656e2069640000000060448201526064016102c3565b5f8281526020819052604090205481146107f45760405162461bcd60e51b815260206004820152603860248201527f4d656d626572736869703a20746f6b656e20646f6573206e6f7420657869737460448201527f206f72206e6f74206f776e65642062792061646472657373000000000000000060648201526084016102c3565b5f600254116108505760405162461bcd60e51b815260206004820152602260248201527f4d656d626572736869703a20746f74616c20737570706c7920756e646572666c6044820152616f7760f01b60648201526084016102c3565b5f8281526020819052604081208190555b60015481101561090e57826001828154811061087f5761087f610e16565b905f5260205f200154036108fc576001805461089c908290610fa8565b815481106108ac576108ac610e16565b905f5260205f200154600182815481106108c8576108c8610e16565b5f9182526020909120015560018054806108e4576108e4610fbb565b600190038181905f5260205f20015f9055905561090e565b8061090681610e3e565b915050610861565b50600280545f1901905560405182905f9083907fbc7a322f72742a0c810e1f76615f57ed3a5bbfcbd956d3d451b3158968faace9908390a45050565b5f80600854116109a65760405162461bcd60e51b815260206004820152602160248201527f4d656d626572736869703a206e6f20736e617073686f7420617661696c61626c6044820152606560f81b60648201526084016102c3565b60016008546109b59190610fa8565b905090565b60606005805461021690610d9b565b5f6008548310610a1b5760405162461bcd60e51b815260206004820152601f60248201527f4d656d626572736869703a20696e76616c696420736e617073686f742069640060448201526064016102c3565b81610a385760405162461bcd60e51b81526004016102c390610e56565b505f91825260076020908152604080842092845291905290205460ff1690565b5f81815260208190526040902054606090610ab55760405162461bcd60e51b815260206004820181905260248201527f4d656d626572736869703a20746f6b656e20646f6573206e6f7420657869737460448201526064016102c3565b5f60068054610ac390610d9b565b905011610ade5760405180602001604052805f8152506106d6565b600682604051602001610af2929190610fcf565b60405160208183030381529060405292915050565b6003546001600160a01b03163314610b315760405162461bcd60e51b81526004016102c390610dd3565b6001600160a01b038116610b995760405162461bcd60e51b815260206004820152602960248201527f4d656d626572736869703a206e6577206f776e657220697320746865207a65726044820152686f206164647265737360b81b60648201526084016102c3565b600380546001600160a01b038381166001600160a01b0319831681179093556040519116919082907f8be0079c531659141344cd1fd0a4f28419497f9722a3daafe3b4186f6b6457e0905f90a35050565b5f6020808352835180828501525f5b81811015610c1557858101830151858201604001528201610bf9565b505f604082860101526040601f19601f8301168501019250505092915050565b5f8060408385031215610c46575f80fd5b50508035926020909101359150565b5f60208284031215610c65575f80fd5b5035919050565b602080825282518282018190525f9190848201906040850190845b81811015610ca357835183529284019291840191600101610c87565b50909695505050505050565b634e487b7160e01b5f52604160045260245ffd5b5f60208284031215610cd3575f80fd5b813567ffffffffffffffff80821115610cea575f80fd5b818401915084601f830112610cfd575f80fd5b813581811115610d0f57610d0f610caf565b604051601f8201601f19908116603f01168101908382118183101715610d3757610d37610caf565b81604052828152876020848701011115610d4f575f80fd5b826020860160208301375f928101602001929092525095945050505050565b5f60208284031215610d7e575f80fd5b81356001600160a01b0381168114610d94575f80fd5b9392505050565b600181811c90821680610daf57607f821691505b602082108103610dcd57634e487b7160e01b5f52602260045260245ffd5b50919050565b60208082526023908201527f4d656d626572736869703a2063616c6c6572206973206e6f7420746865206f776040820152623732b960e91b606082015260800190565b634e487b7160e01b5f52603260045260245ffd5b634e487b7160e01b5f52601160045260245ffd5b5f60018201610e4f57610e4f610e2a565b5060010190565b6020808252818101527f4d656d626572736869703a20696e76616c696420616464726573732068617368604082015260600190565b808201808211156106d6576106d6610e2a565b601f821115610ee7575f81815260208120601f850160051c81016020861015610ec45750805b601f850160051c820191505b81811015610ee357828155600101610ed0565b5050505b505050565b815167ffffffffffffffff811115610f0657610f06610caf565b610f1a81610f148454610d9b565b84610e9e565b602080601f831160018114610f4d575f8415610f365750858301515b5f19600386901b1c1916600185901b178555610ee3565b5f85815260208120601f198616915b82811015610f7b57888601518255948401946001909101908401610f5c565b5085821015610f9857878501515f19600388901b60f8161c191681555b5050505050600190811b01905550565b818103818111156106d6576106d6610e2a565b634e487b7160e01b5f52603160045260245ffd5b5f808454610fdc81610d9b565b60018281168015610ff4576001811461100957611035565b60ff1984168752821515830287019450611035565b885f526020805f205f5b8581101561102c5781548a820152908401908201611013565b50505082870194505b50505093815260200194935050505056fea2646970667358221220a61eb49d539e0cd7671f64382e917450bb2b4d1d32fd515c256be69c360e4b8e64736f6c63430008140033",
    "linkReferences": {}
  },
  "methodIdentifiers": {
    "createSnapshot()": "1504d8f0",
    "destroy(uint256,bytes32)": "82120652",
    "getLatestSnapshotId()": "8a5d4869",
    "getMemberSnapshot(uint256)": "3ec054e5",
    "getOwner()": "893d20e8",
    "isMemberInSnapshot(uint256,bytes32)": "c79597b5",
    "mint(uint256,bytes32)": "1801fbe5",
    "name()": "06fdde03",
    "ownerOf(uint256)": "6352211e",
    "setBaseURI(string)": "55f804b3",
    "symbol()": "95d89b41",
    "tokenURI(uint256)": "c87b56dd",
    "totalSupply()": "18160ddd",
    "transferOwnership(address)": "f2fde38b"
  },
  "id": 23
}